:020000040000fa
:080000000001040000000000f3
:020000040000fa
:04000800d40200001e
:020000040000fa
:04000c00d40200001a
:020000040000fa
:04001000d402000016
:020000040000fa
:04001400d402000012
:020000040000fa
:04001800d40200000e
:020000040000fa
:04001c00d40200000a
:020000040000fa
:04002000d402000006
:020000040000fa
:04002400d402000002
:020000040000fa
:04002800d4020000fe
:020000040000fa
:04002c00d4020000fa
:020000040000fa
:04003000d4020000f6
:020000040000fa
:0400340008020000be
:020000040000fa
:04003800d4020000ee
:020000040000fa
:04003c00d4020000ea
:020000040000fa
:04004000d4020000e6
:020000040000fa
:04004400d4020000e2
:020000040000fa
:040048003002000082
:020000040000fa
:04004c00d4020000da
:020000040000fa
:04005000d4020000d6
:020000040000fa
:04005400d4020000d2
:020000040000fa
:04005800d4020000ce
:020000040000fa
:04005c00d4020000ca
:020000040000fa
:04006000d4020000c6
:020000040000fa
:04006400d4020000c2
:020000040000fa
:04006800d4020000be
:020000040000fa
:04006c00d4020000ba
:020000040000fa
:04007000d4020000b6
:020000040000fa
:04007400d4020000b2
:020000040000fa
:04007800d4020000ae
:020000040000fa
:04007c00d4020000aa
:020000040000fa
:04008000d4020000a6
:020000040000fa
:04008400d4020000a2
:020000040000fa
:04008800d40200009e
:020000040000fa
:04008c00d40200009a
:020000040000fa
:04009000d402000096
:020000040000fa
:04009400d402000092
:020000040000fa
:04009800d40200008e
:020000040000fa
:04009c00d40200008a
:020000040000fa
:0400a000d402000086
:020000040000fa
:0400a400d402000082
:020000040000fa
:0400a800d40200007e
:020000040000fa
:0400ac00d40200007a
:020000040000fa
:0400b000d402000076
:020000040000fa
:0400b400d402000072
:020000040000fa
:0400b800d40200006e
:020000040000fa
:0400bc00d40200006a
:020000040000fa
:0400c000d402000066
:020000040000fa
:0400c400d402000062
:020000040000fa
:0400c800d40200005e
:020000040000fa
:0400cc00d40200005a
:020000040000fa
:0400d000d402000056
:020000040000fa
:0400d400d402000052
:020000040000fa
:0400d800d40200004e
:020000040000fa
:0400dc00d40200004a
:020000040000fa
:0400e000d402000046
:020000040000fa
:0400e400d402000042
:020000040000fa
:0400e800d40200003e
:020000040000fa
:0400ec00d40200003a
:020000040000fa
:0400f000d402000036
:020000040000fa
:0400f400d402000032
:020000040000fa
:0400f800d40200002e
:020000040000fa
:0400fc00d40200002a
:020000040000fa
:04010000d402000025
:020000040000fa
:04010400d402000021
:020000040000fa
:04010800d40200001d
:020000040000fa
:04010c00d402000019
:020000040000fa
:04011000d402000015
:020000040000fa
:04011400d402000011
:020000040000fa
:04011800d40200000d
:020000040000fa
:04011c00d402000009
:020000040000fa
:04012000d402000005
:020000040000fa
:04012400d402000001
:020000040000fa
:04012800d4020000fd
:020000040000fa
:04012c00d4020000f9
:020000040000fa
:04013000d4020000f5
:020000040000fa
:04013400d4020000f1
:020000040000fa
:04013800d4020000ed
:020000040000fa
:04013c00d4020000e9
:020000040000fa
:04014000d4020000e5
:020000040000fa
:04014400d4020000e1
:020000040000fa
:04014800d4020000dd
:020000040000fa
:04014c00d4020000d9
:020000040000fa
:04015000d4020000d5
:020000040000fa
:04015400d4020000d1
:020000040000fa
:04015800d4020000cd
:020000040000fa
:04015c00d4020000c9
:020000040000fa
:04016000d4020000c5
:020000040000fa
:04016400d4020000c1
:020000040000fa
:04016800d4020000bd
:020000040000fa
:04016c00d4020000b9
:020000040000fa
:04017000d4020000b5
:020000040000fa
:04017400d4020000b1
:020000040000fa
:04017800d4020000ad
:020000040000fa
:04017c00d4020000a9
:020000040000fa
:04018000d4020000a5
:020000040000fa
:04018400d4020000a1
:020000040000fa
:04018800d40200009d
:020000040000fa
:04018c00d402000099
:020000040000fa
:04019000d402000095
:020000040000fa
:04019400d402000091
:020000040000fa
:04019800d40200008d
:020000040000fa
:04019c00d402000089
:020000040000fa
:0401a000d402000085
:020000040000fa
:0401a400d402000081
:020000040000fa
:0401a800d40200007d
:020000040000fa
:0401ac00d402000079
:020000040000fa
:0401b000d402000075
:020000040000fa
:0401b400d402000071
:020000040000fa
:0401b800d40200006d
:020000040000fa
:0401bc00d402000069
:020000040000fa
:0401c000d402000065
:020000040000fa
:0401c400d402000061
:020000040000fa
:0401c800d40200005d
:020000040000fa
:0401cc00d402000059
:020000040000fa
:0401d000d402000055
:020000040000fa
:0401d400d402000051
:020000040000fa
:0401d800d40200004d
:020000040000fa
:0401dc00d402000049
:020000040000fa
:0401e000d402000045
:020000040000fa
:0401e400d402000041
:020000040000fa
:0401e800d40200003d
:020000040000fa
:0401ec00d402000039
:020000040000fa
:0401f000d402000035
:020000040000fa
:0401f400d402000031
:020000040000fa
:0401f800d40200002d
:020000040000fa
:0401fc00d402000029
:020000040000fa
:10020000af8820000eff27000e01880000000000cc
:10021000000020000000e000020032000001200089
:100220002002880014000700e90007000000e00039
:1002300003003a00a0c9200001002000020037009e
:100240000000200001002000810f7000010032003a
:1002500014000700000020000000e000020032004f
:100260000000020000000000300602000000000054
:100270000040da000000fe004440a9008030200069
:100280000000e00003003200002020009001880000
:100290004440a800000006008a1f78008b1f7800e9
:1002a00000000600a1028800800478000000eb0036
:1002b0001f003700e284440054a0b4009905ba003e
:1002c000e284440054a0b4009906ba00e2844400d9
:1002d00054a0b4000006eb00476fde00fd07b2003b
:1002e000ae018800636ce10003003a00eaff0700fa
:1002f0000000eb000e003700606ce10008003a00df
:10030000004deb000a05e800020039003420ec0043
:100310000af0a0008b05e900f9ff3e000400370059
:100320006168e100010032000086eb000b0007006d
:1003300019c7ba001905ba000e04e00003003a001c
:100340000a00e000dbff3a0000000600fe07b200f2
:10035000ae0288008a047800f5ff37000cd0a300b5
:10036000e20f4d001c00390089027800354dba00bb
:100370000a05e800020039003420ec000af0a00071
:100380008b05e9000f003200254dba000a05e80090
:10039000020039003420ec000af0a0008b05e900cf
:1003a000080032000c00e0000600320015cdba0053
:1003b0000a05e800020039003420ec000af0a00031
:1003c0008b05e9008984e80054a0b4000b00e0002c
:1003d000e2ff3a00000006009902ba00055d7800cd
:1003e0008b05e900f7ff3200c82ade00055d7800c2
:1003f0008b05e900f3ff32000c00e000f1ff320052
:1004000019ddba00eeff3700940904000000000077
:10041000809fbe003200f8003400f8001000200079
:10042000a001880000202000900188000000fa0050
:10043000004080001140800061004000e0804800e2
:1004400000408800114088008860a9000080fa0000
:100450003400f9003200f9004f00be0000400600f1
:100460003600f800809fbe00829fbe00849fbe00c1
:10047000869fbe003200f8003400f8001000200013
:10048000a001880000202000900188000200fa00ee
:100490000040eb00004f7800360037001e80fb0064
:1004a0006a00b90080007800408120000080400090
:1004b000100078000000e0002d0032001e81fb00db
:1004c0006a10b90000007800e6004000408120007a
:1004d000008040001000be0061004000e080480045
:1004e0006a11b90082017800a281200002814100d6
:1004f0000089be001e80fb006a00b9000000780081
:10050000e600400040812000008040001001be0055
:100510001e80fb006a00b900000078008080e800bf
:1005200040812000008040001000be00800f51007c
:10053000818f59000e003a001e80fb006a00b9004e
:10054000800078004081200000804000100078008a
:10055000000001001e80fb006a00b90080007800e6
:10056000a0812000008140006000b8000089be002a
:100570001e4fe8001e407800e94f5000c7ff3600cc
:100580008900a9000080fa003400f9003200f90067
:100590004f03be004f02be004f01be004f00be0021
:1005a0003600f900004006000040da000000fe00be
:1005b0009803e20004003d009b43ab0002003200c0
:1005c0009b03ab00feff32000040da00feff370065
:1005d000000005006022b800060220000000d000e4
:1005e0008180d2000482d2008582d2000000a00067
:1005f0000202520083825a000300310002024200cc
:1006000083824a000000a1000603e900f3ff3a00dc
:1006100000000600efff07000400be000000060017
:10062000000478000900070008007800e0ff0700d8
:100630008001780002003700815978000201e9004a
:100640000200e000fcff3a00000006000000060087
:020000040000fa
:10065000bf00000026000000020000004d690000fd
:10066000637200006f630000686900007020000082
:100670002020000020200000005300005354000000
:1006800032360000564600003033000032200000b1
:10069000202000002000000080000000ffff00007c
:1006a0003f000000bf0000002500000041000000e6
:1006b0004d690000637200006f630000686900000c
:1006c00070200000202000002020000000530000c7
:1006d000535400003235000056460000303100000f
:1006e0003642000020200000200000000100000031
:1006f000ffff00001f000000bf00000025000000f9
:100700004b0000004d690000637200006f63000041
:1007100068690000702000002020000020200000f8
:1007200000530000535400003235000056460000cc
:10073000303600003443000020200000200000007c
:1007400001000000ffff00007f000000bf0000006c
:1007500000000000000000004d690000637200000e
:100760006f63000068690000702000002020000016
:1007700020200000005300005354000032350000d8
:1007800056460000303300003242000020200000b6
:100790002000000001000000ffff00003f000000fb
:1007a000bf00000026000000430000004d6900006b
:1007b000637200006f630000686900007020000031
:1007c00020200000202000000053000053540000af
:1007d0003236000056460000303600003442000039
:1007e000202000002000000001000000ffff0000aa
:1007f0007f000000bf000000260000004200000053
:100800004d690000637200006f63000068690000ba
:100810007020000020200000202000000053000075
:1008200053540000323600005646000030330000ba
:1008300032420000202000002000000001000000e3
:10084000ffff00003f000000bf0000002600000086
:10085000510000004d690000637200006f630000ea
:1008600068690000702000002020000020200000a7
:100870000053000053540000323600005746000079
:10088000303100003642000020200000200000002f
:1008900001000000ffff00001f000000bf0000007b
:1008a00026000000410000004d6900006372000056
:1008b0006f630000686900007020000020200000c5
:1008c0002020000000530000535400003236000086
:1008d0005646000030310000364200002020000063
:1008e0002000000001000000ffff00001f000000ca
:1008f000bf00000026000000580000004d69000005
:10090000637200006f6300006869000070200000df
:10091000202000002020000000530000535400005d
:1009200032360000574600003038000030420000e8
:10093000202000002000000001000000ffff000058
:100940000f000000bf00000026000000540000005f
:100950004d690000637200006f6300006869000069
:100960007020000020200000202000000053000024
:100970005354000032360000574600003034000067
:100980003042000020200000200000000100000094
:10099000ffff000008000000c2000000200000006f
:1009a000170000004d610000637200006f6e0000d0
:1009b0006978000020200000202000002020000096
:1009c000004d000058320000354c00003634000065
:1009d00034350000452000002020000020000000e9
:1009e00001000000ffff00007f0000002000000069
:1009f00020000000160000004d6900006372000036
:100a00006f6e000020200000202000002020000049
:100a100020200000004d000032350000503300005f
:100a2000322d0000564d00005736000020200000f7
:100a30002000000001000000ffff00003f00000058
:100a4000ef000000400000001700000057690000a0
:100a50006e6200006f6e0000642000002020000025
:100a60002020000020200000005700003235000048
:100a70005136000034460000564100004149000054
:100a8000202000002000000001000000ffff000007
:100a90007f0000000100000040000000170000007f
:100aa00053700000616e0000736900006f6e0000fb
:100ab0002020000020200000202000000053000023
:100ac00032350000464c000031360000344b000047
:100ad0002020000020200000200000000100000075
:100ae000ffff00007f0000007f0000009d0000006d
:100af0004600000049530000534900002020000038
:100b000020200000202000002020000020200000e5
:100b1000004900005332000035430000513000000e
:100b200033320000202000002020000020000000c0
:100b300001000000ffff00003f0000001f00000058
:100b40004600000001000000417400006d650000d7
:100b50006c20000020200000202000002020000049
:100b60002020000000410000543200003644000004
:100b700046310000363100004120000020200000f6
:100b80002000000001000000ffff00001f00000027
:100b90000000000000000000000000004e6f000098
:100ba0006e650000202000002020000020200000b2
:100bb0002020000020200000004500006d70000093
:100bc0007479000020200000202000002020000078
:100bd000202000002000000001000000ffff0000b6
:100be0001f000000496e0000736500007274000071
:100bf0002064000065760000696300006520000045
:100c00002000000050720000657300007320000097
:100c100053340000206b00006579000020200000a4
:100c200020000000546900006d6500003a200000bb
:100c3000002000006d7300006563000020000000cc
:100c400043680000697000002065000072610000c8
:100c5000736500002020000020200000200000001c
:020000040000fa
:100c60000600fa000040eb00004f7800a4000700e7
:100c7000d60007000040eb00004f78003e00370030
:100c80009e80fb00a00220000088b9008000780050
:100c900080322800008040009040780005c8bf00e6
:100ca00080cf500033003a009e80fb00a00220005d
:100cb0000088b900000078008080e80080322800b9
:100cc000008040009000780006c8bf000080fb0054
:100cd000808f500027003a009e80fb00a002200079
:100ce0000088b90000007800e4004000803228004d
:100cf000008040009000780007c8bf000080fb0023
:100d0000808f50001b003a009e80fb00a002200054
:100d10000088b90000007800e6004000803228001a
:100d200000804000404088009e80fb00a002200020
:100d30000088b90000007800f400400080322800ec
:100d4000008040000000e800504088009e80fb00ca
:100d5000a00220000088b9000000780041022000b5
:100d600080804000803228000080400010407800e1
:100d70000ce8b7001e4fe8001e407800f04f50000e
:100d8000bfff360000c8b3008d010700504080004f
:100d9000e701070000ccb3008901070005c8bf00c8
:100da0000004e00003003a00205f2800e001070093
:100db0000200370020602800dd010700100020003d
:100dc0003033880041408000e05c2800808f500074
:100dd000a7ff320001358000000022000080600083
:100de0000000e000a2ff3a00003580004600de006f
:100df0006140600010479800003580004d00de0023
:100e00006140600020479800203380004700de00ea
:100e10006140600030479800003580004700de00e8
:100e200061406000404798002e4090000004e000c0
:100e3000edff3a00030107000028ef000228ef0051
:100e400095e1a800160037000040800011408000a6
:100e5000e00f5000e08f5800110032000040800089
:100e6000114080002203200003002000e9fd07005c
:100e7000e00f5000e08f580009003a0000ccb300aa
:100e80004f01070020612800a901070000408000f1
:100e900011408000b301070090612800a401070001
:100ea00057000700c1802000914078000140600099
:100eb000e14f5000e4ff32009860a90095e1a900dd
:100ec00000c8b3003e010700006228009801070037
:100ed00000ccb3003a01070020612800940107000c
:100ee00000408000114080009e01070090612800b2
:100ef0008f0107006626ef00db000700ffff3700c9
:100f00000000fa00dc26ef006426ef00a026ef00c8
:100f10006626ef00a226ef006226ef009e26ef0075
:100f20009ec6a8009fa6a80062e6a8009ee6a800ac
:100f30002f0207009421ef009021ef0000e823002a
:100f4000900c880041058000f0ff280000806000c0
:100f500000c0a000400588008860a9009860a80033
:100f60009421a900a10c8000f0fc2f0000806000fb
:100f7000a00c880095e1a900f400070040010700db
:100f8000f20007000000eb00f6010700120020004d
:100f90000300200040992000be01070095e1a90050
:100fa0000028ef000228ef000080fa000000060091
:100fb0000000fa00df26a90060c0b3003402070079
:100fc000df26a8000080fa00000006000000fa00fa
:100fd000df26a900f0c9b3002d0207003a0207007e
:100fe00005e8b7003802070006e8b7003602070038
:100ff00007e8b700df26a8000080fa00000006001e
:101000000200fa000000eb00000f7800df26a900c4
:1010100050c0b3001e0207002b0207000080fb0037
:10102000000f7800df26a8001e007800004078003e
:101030000080fa00000006000200fa000040eb0009
:10104000004f7800df26a90050c0b300100207004f
:101050001d020700004f7800df26a80030ccb30047
:101060001e4f6000df26a90000c5b300080207007c
:10107000df26a800df26a90010c0b3000402070085
:101080001e40780002020700df26a9000080fa0057
:10109000000006000200fa000040eb00004f78005c
:1010a000618020009140780050c2b30080cf500092
:1010b00002003a00e0ff0700600037008087200050
:1010c0008040eb0001487800908720008040eb00d2
:1010d00001487800a08720008040eb00014878009c
:1010e000b08720008040eb0001487800c0872000d6
:1010f0008040eb0001487800d08720008040eb0062
:1011000001487800e08720008040eb00014878002b
:10111000f08720008040eb00014878000088200024
:101120008040eb0001487800108820008040eb00f0
:1011300001487800208820008040eb0001487800ba
:10114000308820008040eb00014878004088200073
:101150008040eb0001487800508820008040eb0080
:1011600001487800608820008040eb00014878004a
:10117000708820008040eb000148780080882000c3
:101180008040eb0001487800908820008040eb0010
:101190000148780086ff0700df26a90020c4b300bd
:1011a000bb01070020c1b300004f780006003700e4
:1011b0001e80fb000000e90081872000614078006c
:1011c000b30107001e4fe9001e4078000004e00054
:1011d000f7ff3a00df26a80005c8bf00f14f400026
:1011e00016003a00618020009140780000c4b300ee
:1011f00080cf500011003a0007c8bf00f74f5000e1
:101200000e003a006aff0700df26a90010c0b300f5
:101210009f0107000040eb009d010700df26a800aa
:101220000000000076ff0700c18020009140780098
:10123000014060000004e000faff3a000080fa007c
:10124000000006000000fa0092ff070058ff0700a8
:10125000df26a90070ccb3008d010700df26a800af
:101260000080fa00000006000000fa000000000004
:101270000135800000042000008060000000e000d4
:101280000f00320001358000000022000080600065
:101290000000e0000a003200213380000008200036
:1012a000008060000000e000050032000135800091
:1012b00000082000008060000000e000ecff3a0021
:1012c00000402d00010320008c01070000000000f9
:1012d0000135800000042000008060000000e00074
:1012e000fbff32000135800000002200008060001a
:1012f0000000e000f6ff32002133800000082000eb
:10130000008060000000e000f1ff32000135800045
:1013100000082000008060000000e000ecff3200c8
:101320000000eb00befc07000000fa000040800057
:101330001140800061004000e080480000408800cb
:10134000114088000080fa00000006000000fa004a
:1013500000302500710020006801070000302500e2
:101360007100200065010700b135800000f02f00fa
:1013700000806000b0358800a2a6a9007be6a90025
:10138000a286a9009135800000f02f000080600047
:10139000903588009ea6a90077e6a9009e86a90040
:1013a00080c3b30006000700c0c0b30004000700fc
:1013b00060c0b300020007000080fa0000000600d1
:1013c0000200fa00004f7800b135800000f02f00d5
:1013d00000806000b03588009e80fb00b035800042
:1013e00001007000b0358800a2a6a9007be6a90024
:1013f000a286a8000000000000000000000000001d
:10140000a286a90000102700210020003b01070050
:101410000080fa00000006000200fa00004f780089
:10142000a2a6a9007be6a800b135800000f02f003d
:1014300000806000b03588009e80fb00b0358000e1
:1014400001007000b0358800a286a80000000000ee
:101450000000000000000000a286a9007be6a900b1
:1014600000902100010020002401070000902100cd
:1014700001002000210107000080fa0000000600a2
:101480000000fa0010c0b300cdff070000302500b7
:1014900071002000190107000080fa00000006001a
:1014a0000200fa00004f78000300370000c1b300cb
:1014b000c3ff07001e4fe9001e4078000004e00053
:1014c000faff3a000080fa00000006000400fa006b
:1014d000204798000040eb00004f7800c0c0b300e8
:1014e000b7ff07002e409000edff0700ae409000d0
:1014f000014f78000500370000c2b300c6ff0700a7
:101500002e4090000040e900204798002e409000b7
:101510000004e000f8ff3a001e407800e0ff0700fa
:10152000e0c0b300a6ff07000080fa00000006003c
:101530000200fa00000f7800040037001e00780057
:1015400010407800b4ff07001e0fe8001e0078006e
:10155000104078000004e000f8ff3a000080fa0034
:10156000000006001200fa0070079800010f9800b2
:101570000000eb00000f78007e0090008e089000c5
:10158000e00f5000e08f58002300320011003700b8
:101590007e0090008e089000a20020000300200032
:1015a0001cfc0700804078000e80e8001e00400010
:1015b000014878007e0090008e089000a200200074
:1015c0000300200003fc070070079800010f98003b
:1015d0001e0fe8007e0090008e089000e00f500083
:1015e000e08f5800eaff3a001e0fe90006003700be
:1015f0000e80e8001e004000104078000043b0005c
:1016000085ff07001e0fe9001e0078000000e000c3
:10161000f7ff3d000200370000c3b3007eff070064
:101620000080fa00000006000400fa00100798008d
:101630000040eb00004f7800110037001e80fb00d7
:101640006a00b900800078004081200000804000de
:10165000900078001e009000808f500007003a0034
:101660001e80fb006a00b9008000780040812000e5
:10167000008040008000eb00010878001e4fe80069
:101680001e407800e94f5000ecff36000080fa0061
:10169000000006000800fa001007980022079800d2
:1016a0003307980012c8bf000004a2000004e00045
:1016b000020032000040eb00280037000040eb0041
:1016c000004f7800210037001e80fb006a00b9003f
:1016d00080007800408120000080400010007800e9
:1016e0000000e00018003a001e80fb006a00b9000c
:1016f0008000780040812000008040009e00900023
:10170000010878001e80fb006a00b90080007800a4
:1017100060812000008040002e019000be019000fa
:101720000288be001e80fb006a00b90080007800bd
:10173000a0812000008140006000b8000089be0048
:1017400010c0b300050037001e4fe8001e407800af
:10175000e94f5000dcff36000040eb000080fa004b
:10176000000006000200fa00000f78001e0078005a
:101770000000e00003003200e10f500015003200cd
:1017800018003700420620008000eb004081200056
:10179000a7fb07006105800080ff2f00008060002c
:1017a0000000a000600588008900a9009a21ef00d0
:1017b00000e82300f00c880000022a00100d8800c9
:1017c0009900a80010c0b30012e8b70010c0b30021
:1017d000050037009900a9001268ef0010c0b3009f
:1017e000010037000040eb000080fa000000060016
:1017f0000000fa00c13d800000fc2f000080600066
:10180000a001b300c03d8800e2e6a900313f80009e
:10181000f00f280080806000007020000100700040
:10182000303f8800413f8000f00f280000806000ba
:1018300000b0a000403f8800c13d8000f00f2c00a8
:10184000808060000050210001007000c03d8800d1
:10185000e2c6a900df26a800db26a900f623ef00d8
:10186000f423ef000424ef008000200020208800f3
:10187000f4a3a800f543a900f523a900f503a800e7
:10188000f4c3a900f5e3a8000080fa0000000600f8
:101890000400fa00204798002e4090000080fb00d2
:1018a0000020880000000000e01f80006100600050
:1018b0000000e000fcff320000208000004f7800b4
:1018c0000080fa00000006000200fa000024ef0089
:1018d00000000000e01f8000610060000000e000e8
:1018e000fcff320000208000004f780000208000c4
:0c18f000004078000080fa0000000600b4
:020000040000fa
:1018fc00f03fb1000180b10006003500ee03090095
:10190c0000000000403fb1000180b100fbff3d0032
:10191c001000b000203fb00002003500008009002c
:08192c000000000000000600ad
:020000040000fa
:101934007808000012000000800000000008000089
:101944001200000080000000140800006400000081
:101954008000000012080000020000008000000067
:04196400000000007f
:020000040000fa
:020000040015e5
:047e0000ffff000080
:020000040000fa
:020000040015e5
:047e2000ff1f000040
:020000040000fa
:020000040015e5
:047e3000e1ffff006f
:020000040000fa
:020000040015e5
:047e380043ffff0005
:020000040000fa
:020000040015e5
:047e40009fffff00a1
:020000040000fa
:020000040015e5
:047e4800ffffff0039
:020000040000fa
:020000040015e5
:047e5000deffff0052
:020000040000fa
:020000040015e5
:047e5800ffffff0029
:00000001FF
